:020000040800F2
:10000000C841002479030008F97E0008296F000820
:10001000A57900085D070008AD9500080000000004
:100020000000000000000000000000002D82000819
:10003000D911000800000000FD7E00083986000884
:100040009303000893030008930300089303000838
:100050009303000893030008930300089303000828
:10006000930300089303000893030008C50B0008DE
:10007000D50B0008E50B0008F50B0008050C00087F
:10008000150C0008250C00089303000865130008F0
:1000900075130008930300089303000893030008F6
:1000A00093030008930300089303000893030008D8
:1000B00093030008930300089303000893030008C8
:1000C00093030008930300089303000893030008B8
:1000D000930300085D9500087D9500088D95000844
:1000E0009303000893030008000000009303000836
:1000F000F1880008E188000893030008350C000827
:100100009303000893030008930300089303000877
:10011000158A0008258A0008930300089303000845
:10012000450C0008550C0008650C0008750C00080B
:10013000850C00089303000893030008930300084C
:1001400000000000000000000000000000000000AF
:10015000950C0008A50C0008B50C00089D9500083A
:100160009303000893030008930300089303000817
:100170009303000893030008930300089303000807
:100180009303000893030008358A0008458A000895
:1001900093030008930300089303000893030008E7
:1001A00093030008930300089303000893030008D7
:1001B00093030008930300089303000893030008C7
:1001C00093030008930300089303000893030008B7
:1001D00093030008930300089303000893030008A7
:1001E0009303000893030008930300089303000897
:1001F0009303000893030008930300089303000887
:100200009303000893030008930300089303000876
:100210009303000893030008930300089303000866
:1002200093030008930300089303000800000000F4
:1002300093030008930300080000000093030008E4
:100240009303000893030008930300089303000836
:100250009303000893030008930300089303000826
:100260009303000893030008930300089303000816
:1002700093030008930300089303000800000000A4
:100280009303000893030008930300080000000094
:10029000000000009303000800F002F800F05CF892
:1002A0000AA090E8000C82448344AAF10107DA45D1
:1002B00001D100F051F8AFF2090EBAE80F0013F0C7
:1002C000010F18BFFB1A43F00103184714940000F4
:1002D000349400000A444FF0000C10F8013B13F076
:1002E000070408BF10F8014B1D1108BF10F8015B8F
:1002F000641E05D010F8016B641E01F8016BF9D182
:1003000013F0080F1EBF10F8014BAD1C0C1B09D1D8
:100310006D1E58BF01F801CBFAD505E014F8016B4A
:1003200001F8016B6D1EF9D59142D6D370470000DC
:100330000023002400250026103A28BF78C1FBD8EE
:10034000520728BF30C148BF0B6070471FB509F086
:1003500073F91FBD10B510BD00F006F91146FFF787
:10036000F5FF09F025F900F024F903B4FFF7F2FFD7
:1003700003BC00F027F900000948804709480047FE
:10038000FEE7FEE7FEE7FEE7FEE7FEE7FEE7FEE745
:10039000FEE7FEE704480549054A064B70470000A2
:1003A0007987000899020008C81D0024C84100246C
:1003B000C8310024C831002453EA020C00F06980DF
:1003C0002DE9F04B4FF00006002B1FBFB3FA83F569
:1003D00003FA05F424FA05F65E4012BF1643B2FA9A
:1003E00082F502FA05F4C5F120051EBF22FA05FCCC
:1003F00044EA0C04203556EA044C4FEA144418BF72
:10040000641C4FF000084FF00009904271EB030CA0
:1004100039D3002919BFB1FA81F701FA07F6B0FA0A
:1004200080F700FA07F6C7F120071EBF20FA07FC85
:1004300046EA0C062037B6FBF4FCA7EB0507103F95
:1004400007F01F0BCBF120060CFA0BFB2CFA06F67B
:1004500044BFB3460026202FA4BF5E464FF0000BDA
:100460005BEA060C08BF4FF0010B19EB0B09ABFB65
:10047000027C48EB0608C01B06FB02CC0BFB03CC3E
:1004800071EB0C01C1E70B46024641464846BDE808
:10049000F08B13B54FF000004FF00001AFF3008078
:1004A000BDE81C40704710B5203AC0F00B80B1E8A1
:1004B0001850203AA0E81850B1E81850A0E8185099
:1004C000BFF4F5AF5FEA027C24BFB1E81850A0E8A2
:1004D000185044BF18C918C0BDE810405FEA827CBC
:1004E00024BF51F8043B40F8043B08BF7047D207D3
:1004F00028BF31F8023B48BF11F8012B28BF20F874
:10050000023B48BF00F8012B70474FF0000200B5D6
:10051000134694469646203922BFA0E80C50A0E826
:100520000C50B1F12001BFF4F7AF090728BFA0E8D4
:100530000C5048BF0CC05DF804EB890028BF40F8A0
:10054000042B08BF704748BF20F8022B11F0804FE2
:1005500018BF00F8012B70477047704770470000C4
:1005600000487047641D00247546FFF7F9FFAE464A
:1005700005006946534620F00700854618B020B5AF
:10058000FFF708FFBDE820404FF000064FF00007DE
:100590004FF000084FF0000B21F00701AC46ACE82B
:1005A000C009ACE8C009ACE8C009ACE8C0098D4698
:1005B000704710B50446AFF300802046BDE81040F8
:1005C000FFF7D3BE01491820ABBEFEE726000200AC
:1005D00070470000014630EE601A81ED031A91ED7C
:1005E000031AD1ED001A21EE211A81ED041A91EDC2
:1005F000051AD1ED031A91ED012A01EE821A81ED5F
:10060000051AB2EE0E1A81ED081A91ED031AD1ED1A
:10061000081AB4EEE11AF1EE10FA02DC2048C07BB1
:1006200020B99FED201A81ED051A11E091ED031A12
:10063000D1ED081AF1EE611AB4EEE11AF1EE10FAFA
:1006400002D31748C07B18B99FED161A81ED051A21
:1006500091ED031AD1ED091A31EE611AD1ED021AAA
:10066000BFEE002A61EE821A21EE211A81ED061AF0
:1006700091ED031A81ED091A91ED041AD1ED051AD5
:1006800031EE211AD1ED061A31EE211A81ED071A49
:1006900091ED071ABDEEC11A11EE100A7047000065
:1006A000A007002400000000C0ED081A80ED000A39
:1006B000C0ED010A80ED021A9FED062A80ED042AA2
:1006C0009FED042A80ED052A9FED022A80ED062A7F
:1006D0007047000000000000B0EE401A31EE600AE2
:1006E00080ED030A90ED030AD0ED001A20EE210AF6
:1006F00080ED040A90ED050AD0ED031A90ED012A71
:1007000001EE820A80ED050A90ED030AD0ED081A89
:10071000B4EEE10AF1EE10FA04DD9FED0F0A80ED70
:10072000050A0EE090ED030AD0ED081AF1EE611A09
:10073000B4EEE10AF1EE10FA03D29FED070A80ED64
:10074000050A90ED040AD0ED051A30EE210A80ED7D
:10075000070A90ED070A70470000000000BFFEE79F
:1007600010B58CB00446302221466846FFF79BFE48
:1007700003480FC807F01CFB00200CB010BD0000A0
:100780002401002410B58CB004463022214668466E
:10079000FFF789FE03480FC807F00AFB00200CB0E2
:1007A00010BD0000340100240FB410B504469DF8BC
:1007B000340000F00F00A4F8D4009DF836109DF826
:1007C000350041EA002000EE100AB8EEC00A84EDC0
:1007D000020A9DF8370001019DF8380041EA201017
:1007E00060809DF839109DF8380000F00F0041EA54
:1007F0000020A08094ED020ABDEEC00A10EE100A9F
:100800001021F2EE090ABAEE090A08F0FBFE84EDA7
:10081000370A94ED370ADFED190A20EE200AB7EE09
:10082000C00A9FED171B80EE012BB7EEC20B84EDC3
:10083000370AB4F902000C21F3EE0E0ABBEE0E0AE1
:1008400008F0E0FE84ED380AB4F904000C21F2EE61
:10085000040ABAEE040A08F0D5FE84ED390A9DF8C0
:100860003A0000EE100AB8EE400ABCEEC00A10EEE4
:10087000100AA071002010BC5DF814FB0000344386
:100880004AD8124DFB21094010B588B0044600201B
:10089000009001900220029001200390002004901B
:1008A00005906946206802F0CCFB002201212068F7
:1008B00002F03CFB206803F0B0F808B010BD10B5A2
:1008C00003460C4604F1F400191D0A6850600260EA
:1008D0004160086000BF00BF10BD30B589B005465B
:1008E0000C462068009000200190029008200390A0
:1008F000002004900590069007900890221D6946FC
:10090000286802F063FB10B1002009B030BD01205F
:10091000FBE700001FB5409C4049009888422FD15A
:10092000B4F5007F14DDB4F5017F11DC1098C0F33D
:100930000722A4F201203A4901F810201098C1B210
:10094000A4F20120012202EB40023548815462E00A
:10095000B4F5017F5FDDB4F5027F5CDC1098C0F375
:100960000722A4F205202F4901F810201098C1B2E7
:10097000A4F20520012202EB40022A4881544AE0F9
:1009800029490098884246D1B4F5007F14DDB4F5BA
:10099000017F11DC1098C0F30722A4F20120234943
:1009A00001F810201098C1B2A4F20120012202EB3C
:1009B00040021E4881542EE0B4F5017F14DDB4F5E9
:1009C000027F11DC1098C0F30722A4F20520184919
:1009D00001F810201098C1B2A4F20520012202EB08
:1009E00040021348815416E0B4F5027F13DDB4F5DC
:1009F000037F10DA1098C0F30722A4F209200D49F2
:100A000001F810201098C1B2A4F20920012202EBD3
:100A1000400208488154002004B010BDF00D0024AD
:100A20005400002460000024900E0024780000246C
:100A300084000024900000241FB5409C3449009895
:100A400088422FD1B4F5017F14DDB4F5027F11DCAB
:100A50001098C0F30722A4F205202E4901F81020B7
:100A60001098C1B2A4F20520012202EB40022948ED
:100A700081544AE0B4F5027F47DDB4F5037F44DAE0
:100A80001098C0F30722A4F20920234901F810208E
:100A90001098C1B2A4F20920012202EB40021E48C4
:100AA000815432E01D49009888422ED1B4F5017F6F
:100AB00014DDB4F5027F11DC1098C0F30722A4F214
:100AC0000520174901F810201098C1B2A4F20520A2
:100AD000012202EB40021248815416E0B4F5027F75
:100AE00013DDB4F5037F10DA1098C0F30722A4F2E7
:100AF00009200C4901F810201098C1B2A4F2092075
:100B0000012202EB400207488154002004B010BDCE
:100B1000F00D0024600000246C000024900E0024DE
:100B200084000024900000240FB410B5044694ED16
:100B3000020ABDEEC00A10EE100A00B2A0819DF8B4
:100B400035009DF8341040EA012000EE100AB8EE9E
:100B5000C00A84ED020A9DF837109DF8360041EA7C
:100B6000002000B260809DF839109DF8380041EAFD
:100B7000002000B2A0809DF83A00A07194ED020A16
:100B8000BDEEC00A10EE100A00B22080002010BC9A
:100B90005DF814FB074B02689A4202D1064A1060C6
:100BA000D160064B02689A4202D1054A1060D160BA
:100BB0007047000000A000402401002400A4004071
:100BC0003401002410B5024801F086FA10BD00007F
:100BD000A419002410B5024801F07EFA10BD0000EF
:100BE000841B002410B5024801F076FA10BD000005
:100BF000FC1B002410B5024801F06EFA10BD000085
:100C00000C1B002410B5024801F066FA10BD00006C
:100C1000941A002410B5024801F05EFA10BD0000DD
:100C2000B418002410B5024801F056FA10BD0000B7
:100C30001C1A002410B5024801F04EFA10BD000045
:100C4000741C002410B5024801F046FA10BD0000E3
:100C5000E415002410B5024801F03EFA10BD000072
:100C60005C16002410B5024801F036FA10BD0000F1
:100C70003C18002410B5024801F02EFA10BD000007
:100C8000D416002410B5024801F026FA10BD000069
:100C90004C17002410B5024801F01EFA10BD0000E8
:100CA0002C19002410B5024801F016FA10BD0000FE
:100CB000C417002410B5024801F00EFA10BD000060
:100CC000EC1C0024264A016891422CD0254A91420E
:100CD00029D0254A914226D0244A914223D0244A41
:100CE000914220D0234A91421DD0234A91421AD0EA
:100CF000224A914217D0224A914214D0214A91426D
:100D000011D0214A91420ED0204A91420BD0204A64
:100D1000914208D01F4A914205D01F4A914202D009
:100D20001E4A914217D11E4BCAB2103AA3FB02329F
:100D30001209DFF870C002F007031CF80330C36526
:100D4000032A04D96FF30901091D816506E06FF3D9
:100D50000901816502E021F0FF018165806D704726
:100D600010000240280002404000024058000240AB
:100D70007000024088000240A0000240B80002401B
:100D8000100402402804024040040240580402407B
:100D90007004024088040240A0040240B8040240EB
:100DA000ABAAAAAAA096000801680123DFF894C0A4
:100DB000CAB261451BD0DFF890C0614517D0DFF89B
:100DC0008CC0614513D0DFF888C061450FD0DFF8D3
:100DD00084C061450BD0DFF880C0614507D0DFF8E3
:100DE0007CC0614503D0DFF878C0614511D1A2F124
:100DF00008011C4AA2FB012109091B4A02EB8102DE
:100E000002661A4A426601F01F0103FA01F1816687
:100E10007047DFF85CC0103AACFB02C21209DFF881
:100E200054C06144A82900D80832134901EB82015B
:100E300001661249416602F01F0103FA01F1816661
:100E400070470000085402581C540258305402588D
:100E500044540258585402586C5402588054025852
:100E600094540258CDCCCCCC00580258805802582B
:100E7000ABAAAAAAF0FBFDBF00080240800802400E
:100E800001794A1E072A28D8144B0168994214D0C8
:100E9000134B994211D0134B99420ED0124B9942E9
:100EA0000BD0124B994208D0114B994205D0114BEF
:100EB000994202D0104B994206D1104901EB8201B0
:100EC000C1660F49016705E00E4901EB8201C16669
:100ED0000D4901670121914041677047085402584C
:100EE0001C54025830540258445402585854025862
:100EF0006C540258805402589454025800590258B5
:100F000040590258000902404009024001460020B1
:100F10008B698A6A002B0FD0B3F5005F1DD08AB3AE
:100F2000012A30D0022A2ED0032A04D1C96A11F036
:100F3000807F00D0012070471AB1012A07D0022A11
:100F4000F9D1C96A11F0807FF5D001207047C96AD4
:100F5000B1F1C07FFAD1012070475AB1012A0BD0FC
:100F6000022A07D0032AF7D1C96AB1F1C07FF3D1B1
:100F70000120704701207047C96A11F0807FFAD0C4
:100F800001207047FFE70120704700002DE9F04F76
:100F9000846D794ED0F800C0784FDFF8E481B44515
:100FA000DFF8E091DFF8E0A1DFF8E0B1784D4FD055
:100FB000BC454DD0C4454BD0CC4549D0D44547D095
:100FC000DC4545D0DFF8CCE1F44541D0AC453FD01D
:100FD000DFF8C4E1F4453BD0DFF8C0E1F44537D099
:100FE000DFF8BCE1F44533D0DFF8B8E1F4452FD0A9
:100FF000DFF8B4E1F4452BD0DFF8B0E1F44527D0B9
:10100000DFF8ACE1F44523D0DFF8A8E1F4451FD0C8
:10101000DFF8A4E1F4451BD0DFF8A0E1F44517D0D8
:10102000DFF89CE1F44513D0DFF898E1F4450FD0E8
:10103000DFF894E1F4450BD0DFF890E1F44507D0F8
:10104000DFF88CE1F44503D0DFF888E1F44510D1F6
:10105000D0F864E0D0F868C0CEF804C0D0F86CC016
:10106000BCF1000F05D0D0F870E0D0F874C0CEF815
:1010700004C0D0F800C0B44526D0BC4524D0C44537
:1010800022D0CC4520D0D4451ED0DC451CD0414ECA
:10109000B44519D0AC4517D03F4DAC4514D03F4DA9
:1010A000AC4511D03E4DAC450ED03E4DAC450BD0BD
:1010B0003D4DAC4508D03D4DAC4505D03C4DAC4513
:1010C00002D03C4DAC4523D190F85CC03F250CF0DC
:1010D0001F0C05FA0CFCC4F808C0D0F800C0DCF8FE
:1010E000004024F48024CCF80040D0F800C0CCF8B4
:1010F00004308368402B05D0036899600068C260A3
:10110000BDE8F08F03689A600068C160BDE8F08FA9
:10111000294DAC4514D0294DAC4511D0284DAC45D6
:101120000ED0284DAC450BD0274DAC4508D0274DEF
:10113000AC4505D0264DAC4502D0264DAC45E5D199
:1011400090F85CC001250CF01F0C05FA0CFCC4F8EB
:1011500004C0D0F800C0CCF804308368402B05D020
:10116000036899600068C260BDE8F08F03689A6008
:101170000068C160BDE8F08F100002402800024006
:1011800040000240580002407000024088000240C7
:10119000B8000240A00002401004024028040240AF
:1011A0004004024058040240700402408804024097
:1011B000A0040240B8040240085402581C540258CB
:1011C0003054025844540258585402586C5402582F
:1011D000805402589454025870474FF48061018043
:1011E00041808180C180002101720321417281729E
:1011F0000021C1727047F0B516460F780F2F7CD1D1
:10120000877A47734F7891F802C047EA0C27C7F3F3
:101210000A0707808F78FF1091F803C047EA4C1740
:10122000C7F30A074780CF78BF1191F804C047EA97
:101230008C0791F805C047EA8C27C7F30A07878017
:101240004F797F1091F806C047EACC17C7F30A0719
:10125000C7808F793F1191F807C047EA0C17FDB29C
:10126000CF79FF1191F808C047EA4C0791F809C0FF
:1012700047EA4C27FCB24F7ABF1091F80AC047EA00
:101280008C17FAB28F7A7F1191F80BC047EACC071E
:10129000FBB20788B7F57F7F07DD078840F2044C73
:1012A000674502DA4FF4806707804788B7F57F7F8C
:1012B00007DD478840F2044C674502DA4FF4806747
:1012C00047808788B7F57F7F07DD878840F2044C29
:1012D000674502DA4FF480678780C788B7F57F7F5C
:1012E00007DDC78840F2044C674502DA4FF4806797
:1012F000C7801AB90327477209E01EE09E2A02D16F
:101300000227477203E0612A01D10127477213B90E
:101310000327877208E09E2B02D10227877203E021
:10132000612B01D1012787729E2C02D10027077201
:1013300003E0612C01D101270772F0BD30B50446EE
:101340000D462A4621460348FFF755FF0020024973
:10135000088030BDA00700249C00002472B600BFA6
:10136000FEE7000010B5024801F0A4FF10BD000028
:10137000F00D002410B5024801F09CFF10BD0000E4
:10138000900E0024416B0268D2F884306FF38F0313
:1013900043EA8103C2F884300268D2F88430B0F89E
:1013A00038C023F47F0343EA0C43C2F88430826BD5
:1013B00011440268D2F888306FF38F0343EA810347
:1013C000C2F888300268D2F88830B0F83CC023F404
:1013D000FE0343EA0C43C2F88830C26B01EB4201C2
:1013E0000268D2F8A0306FF38F0343EA8103C2F89A
:1013F000A0300268D2F8A030B0F840C023F4FE0359
:1014000043EA0C43C2F8A030436C026C02FB0311A8
:101410000268D2F8B0306FF38F0343EA8103C2F859
:10142000B0300268D2F8B030B0F848C023F4FE0300
:1014300043EA0C43C2F8B030C36C826C02FB031168
:101440000268D2F8AC306FF38F0343EA8103C2F82D
:10145000AC30436D026D02FB03110268D2F8F0302C
:101460006FF38F0343EA8103C2F8F0300268D2F8C9
:10147000F030B0F858C023F47C1343EA0C43C2F8B0
:10148000F030826D01EB42020168D1F8C0306FF399
:101490008F0343EA8202C1F8C0200168D1F8C0205E
:1014A000B0F85C3022F47C1242EA0342C1F8C0205A
:1014B0000168D1F8C02090F8603022F07C5242EAF6
:1014C0000362C1F8C020416B294A02EB8101C16669
:1014D000826B01EB82020267C36B02EBC3024267BD
:1014E000D0F844C0036C03FB0CF302EB8302826769
:1014F000D0F84CC0836C03FB0CF302EB8302C26791
:10150000D0F854C0036D03FB0CF302EB8302C0F868
:101510008020836D02EBC303C0F88430D0F85CC038
:10152000826E0CFB02FC03EB8C03C0F88830D0F811
:1015300060C00CFB02F203EB8202C0F890200D4B5E
:101540009A420AD9D0F89C1041F02001C0F89C10B2
:10155000032180F89810012070478A4206D90022A2
:101560000A60091DD0F890308B42F9D800207047EE
:1015700000AC0040FCD3004070B4D1F808C00C6946
:101580004D6844EA0C0C0C68002D40D044F08044B7
:101590004CEA040C8D69CC6991F820602C434D69AC
:1015A00045EA06652C438D8944EA0544D0F8845009
:1015B000806E00FB03F005EB8000C0F800C0001D4A
:1015C0000460031D0020134CD1F80CC014F80CC0AB
:1015D000BCF1000F19D902EB000C155C9CF80360FC
:1015E00045EA06659CF802609CF801C0360446EAAC
:1015F0000C2C45EA0C0CC3F800C01B1D001DD1F8D3
:101600000CC014F80CC08445E5D870BC70474CEA97
:10161000844CBFE74496000810B52DED028B0446BC
:1016200094ED081AF0EE410A94ED5A1AB0EE410A10
:1016300004F59A70FEF7CEFF08EE100AB8EEC80A5D
:1016400084ED090AB4F9020001EE100AB8EEC11ADD
:10165000F0EE410A94ED091AB0EE410A04F58270E9
:10166000FFF73AF8BDEEC00A84ED0A0AD4F8781103
:10167000A06A884202DDD4F878010AE0D4F8781133
:101680004942A06A884203DAD4F87801404200E077
:10169000A06AA062BDEC028B10BD90F86511012913
:1016A00003D00021A0F86E117047D0ED090AB0F9FF
:1016B000021000EE101AB8EEC00A30EEC00AB5EE05
:1016C000C00AF1EE10FA0ADDD0ED090AB0F90210F5
:1016D00000EE101AB8EEC00A30EEC00A0BE0D0EDF2
:1016E000090AB0F9021000EE101AB8EEC00A30EE86
:1016F000C00AB1EE400AD0ED5C0AB4EEE00AF1EEA9
:1017000010FA05DDB0F86E11491CA0F86E1102E068
:101710000021A0F86E11B0F86E11B0F8742191425A
:1017200007DB0021A0F86E11032180F8651100216C
:10173000816200BFB8E7000010B50C4890F874044F
:1017400048B900200949886200210848C0F8A4115E
:10175000C0F8201310BD054800F00EF8044800F052
:101760000BF8044800F008F800BFF3E7480900242C
:10177000C40A0024400C002410B5044694F86C01FF
:1017800020B90020A06284F8650110BD94F86501BD
:10179000032802D10020A062F7E794F8640158B949
:1017A000B4F8660108B1012000E0002084F865016A
:1017B000204600F057F905E0012084F86501204635
:1017C000FFF72AFF2046FFF768FF00BFDDE70000B4
:1017D0000146012901D104487047022901D103487B
:1017E000FAE70348F8E70000C40A0024400C00248C
:1017F0004809002408B54FF4017002231A4600215D
:101800000090604806F00AFA40F2022002231A46CD
:10181000002100905C4806F001FA40F2012002230A
:101820001A4600210090594806F0F8F9DFED581AE1
:101830009FED571ADFED560AB2EE0E0A524878387D
:10184000FEF732FFDFED521A9FED511ADFED500A1D
:10185000B7EE000A4C484838FEF726FFDFED4C1A79
:101860009FED4B1ADFED4A0AB2EE0E0A4748783870
:10187000FEF71AFFDFED461A9FED451ADFED440A29
:10188000B7EE000A41484838FEF70EFFDFED401A78
:101890009FED3F1ADFED3E0AB2EE0E0A3D48FEF71D
:1018A00003FFDFED3B1A9FED3A1ADFED390AB7EE81
:1018B000000A38483030FEF7F7FE0120314981F840
:1018C000740481F8640101212E4880F8E01280F848
:1018D0005C1400202B4981F865010021294880F81B
:1018E000E11280F85D1400202649A1F8660100216C
:1018F0002448A0F8E212A0F85E149FED250A80EDBE
:101900005A0A9FED230A80EDB90A9FED210A1F486C
:1019100080ED5A0A01201B4981F86C010121194808
:1019200080F8E81280F8641400201649A1F86E01CE
:1019300000211448A0F8EA12A0F866149FED160AD8
:1019400080ED5C0A9FED140A80EDBB0A9FED120A40
:101950000E4880ED5C0A78200A49A1F874017821CC
:101960000848A0F8F012A0F86C1441F2883005493C
:10197000C1F8780101460348C0F8F412C0F87014A9
:1019800008BD000048090024C40A0024400C0024BB
:1019900000000000440D002400007A4310B52DED36
:1019A000028BB0EE408AB0EE480A002000F048F802
:1019B000BDEC028B10BD10B52DED028BB0EE408A50
:1019C000B0EE480A012000F03BF8BDEC028B10BDE0
:1019D00000201A4981F865010021184880F8E112B9
:1019E00080F85D1400201549A1F866010021134814
:1019F000A0F8E212A0F85E1490ED080A80ED5A0AF1
:101A000090ED670A80EDB90A90EDC60A00F53E70C8
:101A100080ED5A0A00200949A1F86E01002107480B
:101A2000A0F8EA12A0F86614002004498862002198
:101A30000248C0F8A411C0F82013704748090024D8
:101A400070B52DED028B0546B0EE408A2846FFF7B3
:101A5000BFFE0446012084F8640184ED5A8ABDEC7F
:101A6000028B70BD10B50446B4F9660100EE100A91
:101A7000B8EEC00A84ED090AB4F9020001EE100ABA
:101A8000B8EEC11AF0EE410A94ED091AB0EE410A1F
:101A900004F58270FEF720FEBDEEC00A84ED0A0A4E
:101AA000D4F87811A06A884202DDD4F878010AE0FF
:101AB000D4F878114942A06A884203DAD4F8780150
:101AC000404200E0A06AA06210BD00002DE9F84F7E
:101AD000044602F0D3F800905CB194F83500022877
:101AE0000AD080206065002084F834000120BDE821
:101AF000F88F0120BDE8F88FB6492068B64EB74F81
:101B00008842DFF8DC82DFF8DC92DFF8DCA2DFF865
:101B1000DCB226D0B04224D0B84222D0404520D0FA
:101B200048451ED050451CD058451AD0B04A904266
:101B300017D0B04A904214D0AF4A904211D0AF4A69
:101B400090420ED0AE4A90420BD0AE4A904208D09E
:101B5000AD4A904205D0AD4A904202D0AC4A904284
:101B60000AD1026822F01E0202602068426922F057
:101B700080024261256804E0026822F00E020260E1
:101B80002568206888423ED0B0423CD0B8423AD066
:101B9000404538D0484536D0504534D0584532D0ED
:101BA000934A90422FD0934A90422CD0924A90422E
:101BB00029D0924A904226D0914A904223D0914A0D
:101BC000904220D0904A90421DD0904A90421AD024
:101BD0008F4A904217D08F4A904214D08E4A90423A
:101BE00011D08E4A90420ED08D4A90420BD08D4A31
:101BF000904208D08C4A904205D08C4A904202D044
:101C00008B4A904204D1206E026822F480720260F6
:101C100070492068884226D0B04224D0B84222D0F1
:101C2000404520D048451ED050451CD058451AD0BC
:101C30006F49884217D06F49884214D06E49884254
:101C400011D06E4988420ED06D4988420BD06D4943
:101C5000884208D06C49884205D06C49884202D03D
:101C60006B49884204D1016821F00101016003E061
:101C7000016821F001010160286810F0010F14D003
:101C800001F0FCFF0099401A05280AD92020606560
:101C9000032084F83500002084F834000120BDE8DA
:101CA000F88F286810F0010FEAD14A4A0121206814
:101CB000904226D0B04224D0B84222D0404520D015
:101CC00048451ED050451CD058451AD0484B984224
:101CD00017D0484B984214D0474B984211D0474BED
:101CE00098420ED0464B98420BD0464B984208D0B3
:101CF000454B984205D0454B984202D0444B984200
:101D00000AD1A06D4FF03F0C94F85C3003F01F0334
:101D10000CFA03F3836007E0A06D94F85C3003F0E5
:101D20001F0301FA03F34360206890423ED0B042A3
:101D30003CD0B8423AD0404538D0484536D05045DE
:101D400034D0584532D02A4A90422FD0294A904266
:101D50002CD0294A904229D0284A904226D0284A9D
:101D6000904223D0274A904220D0274A90421DD04B
:101D7000264A90421AD0264A904217D0254A9042CD
:101D800014D0254A904211D0244A90420ED0244AC1
:101D900090420BD0234A904208D0234A904205D06B
:101DA000224A904202D0224A90420BD1626EA06E2B
:101DB0005060E06E30B1026822F480720260226FDF
:101DC000606F506084F83510002084F83400BDE85E
:101DD000F88F00001000024028000240400002403E
:101DE000580002407000024088000240A0000240FB
:101DF000B80002401004024028040240400402409F
:101E0000580402407004024088040240A0040240CA
:101E1000B8040240085402581C5402583054025866
:101E200044540258585402586C5402588054025872
:101E3000945402582DE9F05F002808D090F835102E
:101E4000022907D0802141650120BDE8F09F0120D3
:101E5000BDE8F09FDFF81CE20168874BDFF81CC289
:101E60007145874C874D884E884FDFF82482DFF814
:101E70002492DFF824A2DFF824B2894A25D09942BF
:101E800023D0614521D0A1421FD0A9421DD0B1422B
:101E90001BD0B94219D0DFF80CE2714515D0DFF83C
:101EA00008E2714511D0DFF804E271450DD04145DB
:101EB0000BD0494509D0DFF8F8E1714505D051450F
:101EC00003D0594501D0914232D14FF0040E80F831
:101ED00035E06848814221D099421FD061451DD02C
:101EE000A1421BD0A94219D0B14217D0B94215D096
:101EF0006C48814212D06C4881420FD06B488142BD
:101F00000CD041450AD0494508D06948814205D0E6
:101F1000514503D0594501D0914204D1086820F0C1
:101F200001000860A3E0086820F0010008609EE05E
:101F3000D1F800E02EF00E0EC1F800E0DFF834E139
:101F40000168714525D0994223D0614521D0A14235
:101F50001FD0A9421DD0B1421BD0B94219D0DFF821
:101F600044E1714515D0DFF840E1714511D0DFF84B
:101F70003CE171450DD041450BD0494509D0DFF812
:101F800030E1714505D0514503D0594501D091420A
:101F900006D1D1F800E02EF0010EC1F800E005E016
:101FA000D1F800E02EF0010EC1F800E0DFF8C4E047
:101FB0000168714539D0994237D0614535D0A14289
:101FC00033D0A94231D0B1422FD0B9422DD0354BB8
:101FD00099422AD0344B994227D0344B994224D08D
:101FE000414522D0494520D0314B99421DD0514521
:101FF0001BD0594519D0914217D02E4A914214D086
:102000002D4A914211D02D4A91420ED02C4A914234
:102010000BD02C4A914208D02B4A914205D02B4A32
:10202000914202D02A4A914218D1016E0A6822F4E4
:1020300080720A60816D90F85C2002F01F0301221B
:102040009A404A60426E816E5160C16E31B10A6839
:1020500022F480720A60026F416F5160012180F8A2
:102060003510002180F83410016D01B1884700203F
:10207000BDE8F09F100002402800024040000240EE
:10208000580002407000024088000240A000024058
:10209000400402405804024088040240A004024068
:1020A000B8040240B8000240100402402804024074
:1020B00070040240085402581C540258305402580C
:1020C00044540258585402586C54025880540258D0
:1020D00094540258406D70472DE9F04F83B0044688
:1020E000002002904FF41651FD480068B0FBF1F05B
:1020F0000190A56D2E682968FA4F2068DFF8E8A3E3
:10210000DFF8E8B3B842DFF8E883DFF8E8932DD0D2
:10211000524690422AD05A46904227D0404525D078
:10212000484523D0F44A904220D0F44A90421DD032
:10213000F34A90421AD0F34A904217D0DFF8C8C34E
:10214000604513D0F14A904210D0DFF8C4E37045E7
:102150000CD0F04A904209D0EF4A904206D0EF4AA4
:10216000904203D0EE4B984240F0408294F85C10CD
:10217000082201F01F0102FA01F1314241D0B842B8
:1021800028D0504526D0584524D0404522D0484537
:1021900020D0D94988421DD0D84988421AD0D84980
:1021A000884217D0D749884214D0D749884211D0E5
:1021B000D64988420ED0D64988420BD0D5498842AC
:1021C00008D0D549884205D0D449884202D0D449A4
:1021D000884203D1016801F0040102E0016801F0C6
:1021E000080171B1016821F00401016094F85C00FC
:1021F00000F01F0002FA00F0A860606D40F00100DE
:10220000606594F85C0000F01F01012000FA01F104
:10221000314234D02068B84228D0504526D05845A5
:1022200024D0404522D0484520D0B34A90421DD00A
:10223000B24A90421AD0B24A904217D0B14A904264
:1022400014D0B14A904211D0B04A90420ED0B04A58
:1022500090420BD0AF4A904208D0AF4A904205D08E
:10226000AE4A904202D0AE4A90427DD1406910F011
:10227000800F04D0A960606D40F00200606594F8A2
:102280005C0000F01F01042000FA01F1314234D05B
:102290002068B84228D0504526D0584524D0404523
:1022A00022D0484520D0944A90421DD0934A904273
:1022B0001AD0934A904217D0924A904214D0924A30
:1022C000904211D0914A90420ED0914A90420BD048
:1022D000904A904208D0904A904205D08F4A90424E
:1022E00002D08F4A904245D1006810F0020F04D00E
:1022F000A960606D40F00400606594F85C0000F037
:102300001F01102000FA01F1314259D02068B84273
:1023100028D0504526D0584524D0404522D04845A5
:1023200020D0754A90421DD0744A90421AD0744A07
:10233000904217D0734A904214D0734A904211D001
:10234000724A90420ED0724A90420BD0714A90422B
:1023500008D0714A904205D0704A904202D0704A2B
:10236000904209D1006800E002E000F0080006E0B9
:10237000006884E70068C0E7006800F00400F8B176
:10238000A9602068016811F4802F0DD0006810F456
:10239000002F04D0A16C99B12046884710E0216C31
:1023A00071B1204688470BE0016811F4807F03D1AA
:1023B000016821F008010160216C09B120468847BD
:1023C00094F85C0000F01F01202000FA01F1314276
:1023D0006FD02068B84228D0504526D0584524D028
:1023E000404522D0484520D0434A90421DD0434A20
:1023F00090421AD0424A904217D0424A904214D09A
:10240000414A904211D0414A90420ED0404A9042F7
:102410000BD0404A904208D03F4A904205D03F4AF4
:10242000904202D03E4A904203D1006800F0100072
:1024300002E0006800F00200D8B3A96094F835000B
:1024400004280DD02068016811F4802F37D000686F
:1024500010F4002F2ED0E16B59B32046884764E07A
:102460002068016821F0160101602068416921F0AF
:1024700080014161206C08B9A06C20B1206801681E
:1024800021F00801016094F85C003F2100F01F007A
:1024900001FA00F0A860012084F83500002084F8DB
:1024A0003400216D00297BD003B02046BDE8F04FF9
:1024B000084737E0616CA9B32046884735E00168DA
:1024C00011F4807F09D1016821F010010160012021
:1024D00084F83500002084F83400E16B11B322E069
:1024E0006001002410000240280002404000024029
:1024F000580002407000024088000240A0000240E4
:10250000B800024010040240280402404004024087
:10251000580402407004024088040240A0040240B3
:10252000B804024001E020468847606D002837D09B
:10253000606D10F0010F51D0042084F83500206840
:10254000B84228D0504526D0584524D0404522D006
:10255000484520D0AB4988421DD0AB4988421AD0AB
:10256000AA49884217D0AA49884214D0A94988426A
:1025700011D0A94988420ED0A84988420BD0A84959
:10258000884208D0A749884205D0A749884202D08E
:10259000A649884205D1016821F00101016004E0EB
:1025A00096E0016821F00101016021680298019A1A
:1025B000401C0290904203D8086810F0010FF5D13A
:1025C000086810F0010F03D0032084F8350002E002
:1025D000012084F83500002084F83400E16C0029E3
:1025E00076D003B02046BDE8F04F0847904B9842A4
:1025F00014D0904B984211D08F4B98420ED08F4BF5
:1026000098420BD08E4B984208D08E4B984205D002
:102610008D4B984202D08D4B984259D103684FF0B0
:10262000040A94F85C6006F01F060AFA06FA1AEA31
:10263000010F5AD013F0040F57D0C5F804A013F4BB
:10264000004F12D013F4803F07D0216C00293FD0F7
:1026500003B02046BDE8F04F0847A16C002937D0F1
:1026600003B02046BDE8F04F084713F0200F34D1E7
:102670002068B84227D07649884224D075498842DC
:1026800021D040451FD048451DD05E4988421AD010
:102690005D49884217D05D49884214D05C49884220
:1026A00011D060450FD05C4988420CD070450AD0EB
:1026B0005B49884207D05B49884204D0904202D0EF
:1026C0005A49884205D1016821F00801016004E0FF
:1026D00083E0016821F004010160216C00297CD0B5
:1026E00003B02046BDE8F04F08474FF0020A0AFA4F
:1026F00006FA1AEA010F5FD013F0020F5CD0C5F89A
:1027000004A013F4004F12D013F4803F07D0E16B04
:10271000002974D003B02046BDE8F04F0847616C33
:1027200000296CD003B02046BDE8F04F084713F0F5
:10273000200F39D12068B84227D04549884224D09B
:102740004449884221D040451FD048451DD02D49DD
:1027500088421AD02C49884217D02C49884214D07C
:102760002B49884211D060450FD02B4988420CD0AC
:1027700070450AD02A49884207D02A49884204D0A5
:10278000904202D02949884204D1016821F0140105
:10279000016003E0016821F00A010160012084F872
:1027A0003500002084F83400E16B002927D003B005
:1027B0002046BDE8F04F08470822B2400A421ED02A
:1027C00013F0080F1BD0016821F00E01016094F88E
:1027D0005C0000F01F01012000E010E000FA01F1B0
:1027E0006960606584F83500002084F83400E16C8D
:1027F000002904D003B02046BDE8F04F084703B0DD
:10280000BDE8F08F88000240A0000240B8000240FE
:1028100010040240280402404004024058040240D0
:102820007004024088040240A0040240B804024040
:10283000085402581C540258305402584454025848
:10284000585402586C5402588054025894540258F8
:1028500028000240400002402DE9F05F044601F0EC
:102860000DFA0646002C6AD0DC4F022220680025B3
:10287000DFF86C83DFF86C93B842DFF86CA3DFF805
:102880006CB328D0DA49884225D0404523D048454A
:1028900021D050451FD058451DD0D64988421AD066
:1028A000D549884217D0D549884214D0D4498842A6
:1028B00011D0D44988420ED0D34988420BD0D34995
:1028C000884208D0D249884205D0D249884202D0F5
:1028D000D14988427ED184F8352084F83450B842FA
:1028E00028D0C349884225D0404523D0484521D02F
:1028F00050451FD058451DD0BE4988421AD0BE4908
:10290000884217D0BD49884214D0BD49884211D0B1
:10291000BC4988420ED0BC4988420BD0BB49884292
:1029200008D0BB49884205D0BA49884202D0BA498A
:10293000884207D1016821F00101016006E0012011
:10294000BDE8F09F016821F0010101602068006886
:1029500010F0010F11D001F091F9801B052807D963
:1029600020206065032084F835000120BDE8F09F39
:102970002068006810F0010FEDD122681068A749A7
:102980000840E368A168D4F814C01943236943EAF6
:102990000C031943A3691943E3691943236A1943D3
:1029A0000843616A042903D1236BE16A1943084390
:1029B0009B4909686FF30F01B1F1005F11D36168A2
:1029C000A1F12903052B0AD9163B032B07D9083B94
:1029D000012B00E02CE002D94F39032901D840F443
:1029E000801010602068406920F00701606A40EAAA
:1029F000010604280ED1A06A0643E06A50B12046C1
:102A0000FEF784FA30B140206065012084F835007B
:102A1000BDE8F09F206846612046FEF753F994F820
:102A20005C103F2201F01F0102FA01F181605BE0BE
:102A30007C49884214D07C4B984211D07B4B984201
:102A40000ED07B4B98420BD07A4B984208D07A4BF1
:102A5000984205D0794B984202D0794B98427DD16B
:102A600088420CD07049884209D07049884206D00B
:102A70006F49884203D06F49884200D06E4984F87C
:102A8000352084F8345002686FF31012A168402991
:102A900079D0802979D00021E36841EAD301236904
:102AA00041EAD301636941EAD301A36941EAD30151
:102AB000E36941EAD301236A41EA1311114301603A
:102AC0006049206801446048A0FB011000098000B3
:102AD000E0652046FEF7F6F894F85C10012201F05C
:102AE0001F0102FA01F141602068B84242D040491A
:102AF00088423FD040453DD048453BD0504539D035
:102B0000584537D03B49884234D03B49884231D080
:102B10003A4988422ED03A4988422BD039498842D6
:102B200028D03949884225D03849884222D03849AE
:102B300088421FD0374988421CD03749884219D073
:102B40003849884216D03849884213D037498842DC
:102B500010D0374988420DD0364900E018E088424D
:102B600008D03549884205D03449884202D03449DA
:102B700088422CD12046FEF717F9A06880280FD094
:102B80000FE000E001E0102186E74FF4804183E789
:102B900040206065032084F835000120BDE8F09FE7
:102BA0006560216E20790860616EA06E4860606883
:102BB000401E072808D82046FEF762F9E06E05603F
:102BC000216F606F486002E0E566256765676565AF
:102BD000012084F835000020BDE8F09F100002407D
:102BE000400002405800024070000240880002404D
:102BF00028000240A0000240B80002401004024039
:102C0000280402404004024058040240700402407C
:102C100088040240A0040240B80402403F8010FE35
:102C20000010005C085402581C54025830540258DA
:102C300044540258585402586C5402588054025854
:102C400094540258F8ABFDA7CDCCCCCC2DE9F84F6D
:102C5000044600200090002C16D094F8340001287F
:102C600015D0012084F8340094F835C00020BCF160
:102C7000010F0FD04FF40061616584F8340001202A
:102C800000900098BDE8F88F0120BDE8F88F022081
:102C9000BDE8F88F4FF0020C84F835C06065DFF8AE
:102CA0002CC220688A4D8B4E60458B4FDFF82C82FA
:102CB000DFF82C92DFF82CA2DFF82CB22DD0A8423E
:102CC0002BD0B04229D0B84227D0404525D0484526
:102CD00023D0504521D058451FD0DFF810C26045A1
:102CE0001BD0DFF80CC2604517D0DFF808C2604582
:102CF00013D0DFF804C260450FD0DFF800C2604592
:102D00000BD0DFF8FCC1604507D0DFF8F8C16045A3
:102D100003D0DFF8F4C1604506D1D0F800C02CF034
:102D2000010CC0F800C005E0D0F800C02CF0010C88
:102D3000C0F800C02046FEF729F96449206888429F
:102D400025D0A84223D0B04221D0B8421FD0404560
:102D50001DD048451BD0504519D0584517D0634A5F
:102D6000904214D0624A904211D0624A90420ED0F2
:102D7000614A90420BD0614A904208D0604A90422A
:102D800005D0604A904202D05F4A90420DD102685D
:102D900022F01E0242F016020260206C90B1206800
:102DA000026842F0080202600CE0026822F00E02A3
:102DB00042F00A020260206C20B12068026842F0F2
:102DC00004020260206888423DD0A8423BD0B04255
:102DD00039D0B84237D0404535D0484533D050453A
:102DE00031D058452FD0414A90422CD0404A904291
:102DF00029D0404A904226D03F4A904223D03F4AB1
:102E0000904220D03E4A90421DD03E4A90421AD075
:102E10003D4A904217D03D4A904214D03C4A9042DD
:102E200011D03C4A90420ED03B4A90420BD03B4AD4
:102E3000904208D03A4A904205D03A4A904202D095
:102E4000394A90420ED1206E026812F4803F03D0BE
:102E5000026842F480720260E06E18B1026842F4C7
:102E6000807202602068884225D0A84223D0B042F8
:102E700021D0B8421FD040451DD048451BD05045F9
:102E800019D0584517D01949884214D0184988429A
:102E900011D0184988420ED0174988420BD01749E3
:102EA000884208D01649884205D01649884202D087
:102EB0001549884204D1016841F001010160E0E652
:102EC000016841F001010160DBE6000010000240F2
:102ED00028000240400002405800024070000240BA
:102EE00088000240A0000240B800024010040240E6
:102EF000280402404004024058040240700402408A
:102F000088040240A0040240B80402400854025859
:102F10001C54025830540258445402585854025811
:102F20006C540258805402589454025890F89830C7
:102F3000012B09D0022B07D0D0F89C1041F00201E0
:102F4000C0F89C10012070470368D3F858C01CEAF1
:102F5000010F06D1D3F85CC04CF0010CC3F85CC083
:102F600008E0D3F858C031EA0C0C26D04FF0030C1F
:102F7000C3F85CC011F4007F06D00368D3F8E0C04A
:102F80004CEA020CC3F8E0C011F4806F06D003686D
:102F9000D3F8E4C04CEA0202C3F8E4200068426DB2
:102FA00021F4401323F040431A4342650648026867
:102FB00042EA9171016000207047D3F85CC04CF088
:102FC000020CC3F85CC0D5E714A8004070B50446F5
:102FD00094F89800022807D0D4F89C0040F008002C
:102FE000C4F89C00012070BD2068D0F8C03013F0F8
:102FF0007C5F0CD0D0F8C43013F4001F0FD0D4F88D
:103000009C0040F40070C4F89C00012070BDD4F80E
:103010009C0040F02000C4F89C00012070BDD0F856
:10302000C400C0F3044520462B46FEF7A5FA2168EC
:103030000120A840C1F8D000C4F89400002070BD61
:10304000704790F89820012A09D0022A07D0D0F8BA
:103050009C1041F00201C0F89C1001207047CA6822
:103060000B6893B1072A0B6943EA42732ED091F89B
:1030700008C04A6942EA8C724968006F00EBC100DF
:10308000036042604FF000007047072A12D091F8A9
:1030900008C04FEAC2624B6943EA8C73B1F810C0B2
:1030A00042EA0C4243EA02024968C06E00EB81002A
:1030B0000260E7E70B8A4FF0605C8A6942EA0342EC
:1030C000CB694CEA032342EA0302EDE78A69D3E7BE
:1030D00070477047F0B44FF0000C90F89840022C05
:1030E00008D0D0F89C1041F00801C0F89C10F0BC4A
:1030F0000120704740290DD0412940D0046D8C42F9
:1031000073D8D0F89C1041F02001C0F89C10F0BC9E
:10311000012070470468D4F8A05015F4FE0F1CD0AD
:10312000D4F8A45015F07F0F20D0D4F8A45015F097
:10313000807F06D0D4F8A05015F0004F01D54FF095
:10314000010CD4F8A440C4F30524A444456C446F96
:1031500005FB0CF504EB85044DE0D0F89C1041F024
:103160002001C0F89C10F0BC01207047D0F89C10E2
:1031700041F48071C0F89C10F0BC012070470468D5
:10318000D4F8B05015F4FE0F1CD0D4F8B45015F09C
:103190007F0F20D0D4F8B45015F0807F06D0D4F83B
:1031A000B05015F0004F01D54FF0010CD4F8B440E9
:1031B000C4F30524A444C56C846F05FB0CF504EB33
:1031C000850418E0D0F89C1041F02001C0F89C1054
:1031D000F0BC01207047D0F89C1041F48071C0F819
:1031E0009C10F0BC01207047FFE7456DC46F05FBE4
:1031F00001F504EB8504256805F080455560E5B3CD
:10320000256825F060451560256805F00055956036
:10321000256805F000451561241D2588ADB2D561EE
:103220002568C5F30347D760256805F48015556107
:10323000256805F4001595612568C5F306651562D6
:103240002568ED0F5562251D0024184EF75D002FEF
:1032500006D92F5D1F55641CD768F75DA742F8D8C3
:10326000402910D0412912D00122202913D2006810
:1032700002FA01F1C0F8981014E0FFE72568C5F3E1
:103280008A451560C0E70068C0F8A8C00AE0006879
:10329000C0F8B8C006E0006801F01F0102FA01F1B1
:1032A000C0F89C100020F0BC704700004496000855
:1032B000704700002DE9F04F83B00446BC4F3868DA
:1032C0008007391D096800EA81792068016D01F4E1
:1032D0007041426D02EA010A016D01F00F01426D79
:1032E00002EA010B016D01F0F001426D1140029103
:1032F000016D01F07151426D02EA0108016D01F0AA
:103300006071426D11400191456D066D15F4807F2D
:1033100009D016F4807F06D0B91501650020386009
:103320002046FFF7C5FF15F4806F10D016F4806FAC
:103330000DD02068D0F8DC10D0F8E42011404FF414
:103340008062026500203860204600F085FBB9F1FC
:10335000000F0CD0216829F4401020F0404008658F
:103360004FEA9970386049462046FFF769FEBAF186
:10337000000F0CD021682AF4401020F0404008656E
:103380004FEA9A7038605146204600F067FBBBF167
:10339000000F0CD021682BF4401020F0404008654D
:1033A0004FEA9B7038605946204600F007FB0298B0
:1033B00068B12168029820F4401020F04040086570
:1033C0000298800F38600299204600F025FB15F422
:1033D000006F0BD016F4006F08D021684FF4006026
:1033E000086500203860204600F039FB15F4007FA6
:1033F00010D016F4007F0DD02068D0F8D810D0F887
:10340000E02011404FF40072026500203860204631
:1034100000F023FB15F4002F0BD016F4002F08D07A
:1034200021684FF40020086500203860204600F035
:10343000C3FA15F4803F0BD016F4803F08D0216802
:103440004FF48030086500203860204600F003FB10
:1034500015F4802F0BD016F4802F08D021684FF47C
:103460008020086500203860204600F0F3FA15F44B
:10347000003F0ED016F4003F0BD021684FF400300F
:10348000086500203860D4F89C0040F08000C4F843
:103490009C00019868B12168019820F4401020F048
:1034A000404008650198800F386001992046FFF779
:1034B00010FEB8F1000F0ED0216828F4401020F063
:1034C000404008654FEA98703860D4F89C0040EAA4
:1034D0000800C4F89C002068A0F18041B1F52041AB
:1034E0005CD16068816811F0030F57D0016A01F068
:1034F0000F01426A1140026A02F03002436A03EA95
:103500000207026A02F4C072436A03EA0208026A0E
:1035100002F4FC42436A03EA0205026A02F4F02262
:10352000436A03EA0206D0F82490D0F820A019B12B
:103530000162204600F08BFA2FB1606807623946BD
:10354000204600F086FA19F0400F0DD01AF0400F17
:103550000AD06068C16B090CC26B02F03F024023C5
:103560000362204600F074FAB8F1000F06D06068DC
:10357000C0F820804146204600F068FA35B1606806
:103580000562D4F89C002843C4F89C0036B16068FA
:103590000662D4F89C003043C4F89C00D4F89C0028
:1035A000002802D02046FFF793FD03B0BDE8F08F5E
:1035B00010A800402DE9F04194B004464C22A149E6
:1035C00001A8FCF770FF5CB19F4F2068B84202D1A0
:1035D00000F58070606094F89800002620B108E043
:1035E00014B00120BDE8F08184F89960204600F015
:1035F0002DF92068816921F01001816100F03EFB06
:103600000546206880694FF0030810F0080F15D0B8
:1036100000F034FB401B0A280BD9D4F89C0040F082
:103620000100C4F89C0084F8988014B00120BDE823
:10363000F0812068806910F0080FE9D12068816965
:1036400041F00101816100F019FB054620688069A5
:1036500010F0010F15D100F011FB401B0A280BD907
:10366000D4F89C0040F00100C4F89C0084F89880D5
:1036700014B00120BDE8F0812068806910F0010FCE
:10368000E9D02068816941F002018161207C012834
:1036900039D02068816941F040018161607C012856
:1036A00037D02068816921F480418161A07C0128A4
:1036B00035D02068816941F4805181612068816939
:1036C000A26821F44071114381612068816921F071
:1036D000A40181612068016921F010010161E068A5
:1036E000012822D030B302282BD02068816941F014
:1036F000800181612068016941F010010161E06889
:10370000032818D022E02068816921F040018161FE
:10371000C4E72068816941F480418161C6E720687F
:10372000816921F480518161C8E72068816941F095
:10373000040181610AE02068816941F02001816112
:1037400004E02068816941F020018161207EE16907
:10375000401E491E400640EA0120216A491E0843D6
:10376000A18A491E40EA01402168C861A068B0F5FD
:10377000407F0FD1E16AA06A491E401E40EA012045
:10378000216B491E40EA0110A18C491E40EA01400C
:103790002168C860206E30B12068D0F8C010626E19
:1037A0001143C0F8C010216EE06DC84201A90AD0D3
:1037B0002068D0F8C820A36E22F0070251F8233009
:1037C0001A43C0F8C820206C50B12068D0F8BC2043
:1037D000636C22F0070251F823301A43C0F8BC2072
:1037E000A06C58B12068D0F8BC20E36C22F07002C5
:1037F00051F8233042EA0312C0F8BC20206D58B1C2
:103800002068D0F8BC20636D22F4E06251F82310E8
:1038100042EA0121C0F8BC102068B84204D16068B7
:10382000816821F003018160C4F89460C4F89C6051
:10383000012084F898002046FDF7A4FD14B0BDE8EF
:10384000F08100005496000800A0004010B5B8B008
:103850000446142132A8FCF758FEC02102A8FCF748
:1038600054FE4F49206888424AD14FF4004100205D
:10387000CDE9021048031E9002A800F063FE08B1D3
:10388000FDF76CFD47480068401C46490860084643
:10389000006801280DD100BF4348006840F48070E3
:1038A000414908600846006800F48070019000BF3C
:1038B00000BF00BF3C480C38006840F001003A49A6
:1038C0000C3908600846006800F00100019000BF54
:1038D00000BF4FF4C050329002203390002034904B
:1038E00035900920369032A9304800F0B9F800220E
:1038F0000221132000F0CCFB132000F0BBFB4CE0B6
:103900002B492068884248D14FF400410020CDE97E
:10391000021048031E9002A800F014FE08B1FDF743
:103920001DFD20480068401C1E49086008460068CC
:1039300001280DD100BF1C48006840F480701A496E
:1039400008600846006800F48070019000BF00BF66
:1039500000BF15480C38006840F0020012490C39CD
:1039600008600846006800F00200019000BF00BF38
:10397000602032900220339000203490359009204E
:10398000369032A90B4800F06BF800220121142078
:1039900000F07EFB142000F06DFB38B010BD00007D
:1039A00000A0004050010024EC44025800000258DE
:1039B00000A40040000402587047000030B58DB0EC
:1039C00004460D461049206888420BD10BAB01AA72
:1039D00040212046FFF77EFB012803D00B48C16839
:1039E00001A888470A49206888420BD10BAB01AA7D
:1039F00040212046FFF76EFB012803D00548C1682F
:103A000001A888470DB030BD00A00040240100246B
:103A100000A4004034010024704790F89810012958
:103A200007D0D0F89C1041F00401C0F89C10012090
:103A30007047022180F8981001688A6922F001021B
:103A40008A610021C0F89C100020704770477047C1
:103A500070477047704770477047704770477047AE
:103A60002DE9F84F0022DFF8E4C10B68002B7DD070
:103A7000DFF8DCB14FF0B04A4FF0010E4FF0030811
:103A80004FF00F090B680EFA02F52B40002B6ED099
:103A90000C7904F00304012C01D0022C11D18668AA
:103AA000540008FA04F7BE43CF6807FA04F434431D
:103AB00084604468AC430D79C5F3001595402C43F0
:103AC00044604C6838EA040409D0C568540008FA18
:103AD00004F6B5438E6806FA04F42C43C4600C79EE
:103AE00004F00304022C0DD1D40800EB84052E6AE7
:103AF0005407E40E09FA04F7BE430F6907FA04F409
:103B000034432C620568540008FA04F6B5430E7974
:103B100006F0030606FA04F42C4304604C6814F41F
:103B2000403F78D0DBF8004044F00204CBF800407E
:103B3000DBF8004004F00204009422F0030404F1D6
:103B4000B046D6F8084495072D0F09FA05F724EA80
:103B50000707A0F1B044B4F5003463D0A0F1B0443D
:103B6000B4F5013460D0A0F1B04401E058E052E077
:103B7000B4F502345AD0A0F1B044B4F5033457D0B0
:103B8000A0F1B044B4F5043454D0A0F1B044B4F57D
:103B9000053451D0A0F1B044B4F506344ED0A0F1B4
:103BA000B044B4F507344BD0A0F1B044B4F50834B8
:103BB00048D0A0F1B044B4F5093445D00A24AC4053
:103BC0003C43C6F80844DAF800409C434D6815F4BD
:103BD000801F00D01C43CAF80040DAF804409C4320
:103BE0004D6815F4001F00D01C43CAF80440DCF8EF
:103BF00004409C434D6815F4003F00D01C43CCF8B2
:103C00000440DCF800409C434D6815F4803F00D030
:103C10001C43CCF80040521C0B68D3407FF432AFF9
:103C2000BDE8F88F0024CAE70124C8E70224C6E7EC
:103C30000324C4E70424C2E70524C0E70624BEE742
:103C40000724BCE70824BAE70924B8E78000005835
:103C5000F44402580069084201D001207047002056
:103C60007047002A01D08161704709048161704763
:103C700001480068000C70470010005C0148806833
:103C8000704700005401002490F84120202A01D000
:103C90000220704790F84020012A20D0012280F8AD
:103CA0004020242280F841200268136823F0010399
:103CB00013600268136823F480531360026813686A
:103CC0001943116001680A6842F001020A6020216C
:103CD00080F84110002180F8401000207047022039
:103CE000704790F84120202A01D00220704790F8B8
:103CF0004020012A1ED0012280F84020242280F892
:103D000041200268136823F00103136002681368FE
:103D100023F4706343EA0121116001680A6842F0EC
:103D200001020A60202180F84110002180F8401033
:103D3000002070470220704770B50446002C04D064
:103D400094F84100002510B106E0012070BD84F810
:103D50004050204600F056F8242084F841002068A6
:103D6000016821F001010160606820F07061206845
:103D700001612068816821F400418160E0680128C8
:103D800033D02168A06840F404408860E0680228CD
:103D900031D02068416821F40061416020684168A9
:103DA00041F4004141F0007141602068C16821F494
:103DB0000041C160616920690843A16940EA0120AE
:103DC0002168C860216AE0690843216808602068AA
:103DD000016841F0010101606564202084F8410020
:103DE000256384F84250002070BD2168A06840F42B
:103DF00000408860CAE72068416841F40061416082
:103E0000CCE7000010B5B8B00446142132A8FCF786
:103E10007CFBC02102A8FCF778FB59492068884246
:103E200036D108210020CDE90210239002A800F02D
:103E300089FB08B1FDF792FA00BF5248006840F0D4
:103E40000200504908600846006800F00200019036
:103E500000BF00BF4FF4C07032901220339000209A
:103E6000349035900420369032A94748FFF7F8FD8A
:103E700000BF44480830006840F400104149083150
:103E800008600846006800F40010019000BF75E06B
:103E90003E492068884236D108210020CDE9021031
:103EA000239002A800F04EFB08B1FDF757FA00BFBF
:103EB0003448006840F00200324908600846006853
:103EC00000F00200019000BF00BF4FF4406032904C
:103ED000122033900020349035900420369032A97F
:103EE0002948FFF7BDFD00BF26480830006840F4B0
:103EF00080002449083108600846006800F480000A
:103F0000019000BF3AE022492068884236D1102152
:103F10000020CDE90210289002A800F013FB08B1A0
:103F2000FDF71CFA00BF1748006840F0080015496B
:103F300008600846006800F00800019000BF00BF5C
:103F40004FF440503290122033900020349035903E
:103F50000420369032A90F48FFF782FD00BF0948C0
:103F60001430006840F080000649143108600846AB
:103F7000006800F08000019000BF00BF38B010BDA5
:103F800000540040E0440258000402580058004029
:103F9000001C0058000C0258024881680278114445
:103FA000816070475401002410B5032000F0A6F88A
:103FB00001F0C6F90F4A1168C1F303230E49CB5C27
:103FC00003F01F03D840126802F00F02895C0B4A0D
:103FD00001F01F0120FA01F1116009490860002079
:103FE00000F010F808B1012010BD00F031F80020F9
:103FF00010BD000018440258D09600086401002447
:104000006001002470B504460F4D2A78002A0CD0B8
:104010004FF47A700D49B0FBF2F00968B1FBF0F093
:1040200001F01AFE18B1012070BD012070BD102CE6
:1040300007D200222146501E00F02AF86C600020B2
:1040400070BD012070BD00005401002460010024F7
:1040500008B500BF0648006840F002000449086047
:104060000846006800F00200009000BF00BF08BDD5
:10407000F444025800280ADB012200F01F0102FA72
:1040800001F14009800000F1E020C0F80011704704
:104090004DF8044D184B1B68C3F30223C3F1070C02
:1040A000BCF1040F01D94FF0040C1C1D072C01D2E8
:1040B000002300E0DB1E012404FA0CFCACF1010C2F
:1040C0000CEA0101994004FA03F35B1E1A40114304
:1040D000002807DB00F1E020090180F800145DF8FA
:1040E000044B704700F00F0000F1E020090180F858
:1040F000141D5DF8044B70470CED00E000F0070064
:10410000064A11684FF6FF03194041EA002040F0CB
:10411000FD7040F080601060704700000CED00E022
:1041200070B515490A6812F0040F0DD00A6822F024
:10413000070210430860FFF7A1FD04460F4D2868F1
:1041400010F4005F09D014E0096801F00701814212
:1041500001D0012070BD002070BDFFF78FFD001B56
:10416000B0F57A7F01D9012070BD286810F4005F96
:10417000F3D0002070BD00000C48025804480258DB
:1041800010B501F091F805490968054AC1F302111B
:10419000515C01F01F01C84010BD000020440258CE
:1041A000D096000869490A6802F003020968C1F361
:1041B0000531674B1B68C3F30013DFF898C1DCF8C7
:1041C00000C0CCF3CC0C1CFB03F300EE103AB8EEAD
:1041D000400A002972D09FED601A604B002AF7EE6A
:1041E000000A46D0DFED5E1A012A68D0022A67D0A5
:1041F00002EE101A1968F8EE422A81EEA22AC1F3E3
:10420000080101EE901AF8EE611A40EE011A31EE43
:10421000A00A22EE000A1968C1F3462101EE101A25
:10422000B8EE411A31EE201AC0EE011ABCEEE11AC6
:1042300080ED001A1968C1F3064101EE101AB8EEBC
:10424000411A31EE201AC0EE011ABCEEE11A80EDDF
:10425000011A1968C1F3066101EE101AB8EE411A8D
:1042600071EE200A80EE201ABCEEC10A80ED020A2F
:1042700070473C4AD2F800C01CF0200F21D01268D1
:10428000DFF8E4C0C2F3C1022CFA02F201EE902A78
:10429000F8EE612A01EE901A1968F8EE611A82EEC2
:1042A000A12AC1F3080101EE901AF8EE611A40EE5E
:1042B000011A31EEA00A22EE000AACE741E016E056
:1042C00029E001EE901ADFED292A1968F8EE611A4B
:1042D00082EEA12AC1F3080101EE901AF8EE611AEC
:1042E00040EE011A31EEA00A22EE000A93E702EE38
:1042F000101A1968F8EE422A81EEA22AC1F30801C9
:1043000001EE901AF8EE611A40EE011A31EEA00AA1
:1043100022EE000A7FE701EE901ADFED152A1968F8
:10432000F8EE611A82EEA12AC1F3080101EE901A9B
:10433000F8EE611A40EE011A31EEA00A22EE000AF0
:1043400069E700210160416081607047284402589C
:104350002C4402583C4402580000003938440258AA
:104360000024744A004402580090D0030024744C86
:104370000024F44A69490A6802F003020968C1F39B
:104380000551674B1B68C3F30023DFF898C1DCF8C5
:1043900000C0CCF3CC0C1CFB03F300EE103AB8EEDB
:1043A000400A002972D09FED601A604B002AF7EE98
:1043B000000A46D0DFED5E1A012A68D0022A67D0D3
:1043C00002EE101A1968F8EE422A81EEA22AC1F311
:1043D000080101EE901AF8EE611A40EE011A31EE72
:1043E000A00A22EE000A1968C1F3462101EE101A54
:1043F000B8EE411A31EE201AC0EE011ABCEEE11AF5
:1044000080ED001A1968C1F3064101EE101AB8EEEA
:10441000411A31EE201AC0EE011ABCEEE11A80ED0D
:10442000011A1968C1F3066101EE101AB8EE411ABB
:1044300071EE200A80EE201ABCEEC10A80ED020A5D
:1044400070473C4AD2F800C01CF0200F21D01268FF
:10445000DFF8E4C0C2F3C1022CFA02F201EE902AA6
:10446000F8EE612A01EE901A1968F8EE611A82EEF0
:10447000A12AC1F3080101EE901AF8EE611A40EE8C
:10448000011A31EEA00A22EE000AACE741E016E084
:1044900029E001EE901ADFED292A1968F8EE611A79
:1044A00082EEA12AC1F3080101EE901AF8EE611A1A
:1044B00040EE011A31EEA00A22EE000A93E702EE66
:1044C000101A1968F8EE422A81EEA22AC1F30801F7
:1044D00001EE901AF8EE611A40EE011A31EEA00AD0
:1044E00022EE000A7FE701EE901ADFED152A196827
:1044F000F8EE611A82EEA12AC1F3080101EE901ACA
:10450000F8EE611A40EE011A31EEA00A22EE000A1E
:1045100069E70021016041608160704728440258CA
:104520002C440258444402580000003940440258C8
:104530000024744A004402580090D0030024744CB4
:104540000024F44A2DE9F84F04460025002620688F
:10455000C04310F0006FFE4FDFF8F8830DD1A06E5E
:1045600088B1B0F5801F13D0B0F5001F17D0B0F59B
:10457000401F00D00125CDB12E462088C04310F445
:10458000807F1CD039E0386840F400303860F2E7B2
:10459000022104F1080003F0B3FC0546EBE7022119
:1045A00004F1280003F04CFD0546E4E7D8F80000CC
:1045B000A16E20F440100843C8F80000DDE7A06DAC
:1045C000052817D2DFE800F003080F171700386836
:1045D00040F4003038600EE0002104F1080003F0E0
:1045E0008FFC054607E0002104F1280003F028FDB8
:1045F000054600E0012535B12E462088C04310F461
:10460000007F09D018E0D8F80000A16D20F0070065
:104610000843C8F80000F0E7E06D802820D003DCF4
:1046200090B1402805D114E0C02803D0B0F5807FB8
:1046300000D00125DDB12E462088DFF81C93C04351
:1046400010F4806F1CD02FE0386840F400303860E0
:10465000F0E7002104F1080003F052FC0546E9E709
:10466000002104F1280003F0EBFC0546E2E7D8F84E
:104670000000E16D20F4E0700843C8F80000DBE7BB
:10468000D4F8A800B0F5800F20D004DC90B1B0F5CC
:10469000001F06D113E0B0F5C00F03D0B0F5000F36
:1046A00000D00125CDB12E462088C04310F4006F04
:1046B0001DD030E0386840F400303860F2E7002167
:1046C00004F1080003F01CFC0546EBE7002104F1AF
:1046D000280003F0B5FC0546E4E7D9F80000D4F85B
:1046E000A81020F460000843C9F80000DCE7D4F803
:1046F000AC00B0F1007F20D004DC90B1B0F1807F3D
:1047000006D113E0B0F1407F03D0B0F1806F00D04C
:104710000125CDB12E462068C04310F0007F1DD08A
:1047200027E0386840F400303860F2E7002104F1F7
:10473000080003F0E5FB0546EBE7002104F1280043
:1047400003F07EFC0546E4E7D9F80000D4F8AC108D
:1047500020F0E0600843C9F80000DCE7E06C30B10D
:1047600010280CD020280FD0302800D0012595B17A
:104770002E462088C04310F4805F14D026E03868AD
:1047800040F400303860F2E7022104F1080003F041
:10479000B7FB0546EBE771480168E26C21F0300198
:1047A00011430160E5E7206EB0F5005F20D004DC26
:1047B00090B1B0F5805F06D113E0B0F5405F03D053
:1047C000B0F5804F00D00125CDB12E462088C043E2
:1047D00010F4005F1CD031E0386840F400303860DD
:1047E000F2E7002104F1080003F08AFB0546EBE73D
:1047F000002104F1280003F023FC0546E4E7D8F883
:104800000000216E20F4E0400843C8F80000DDE716
:10481000606EB0F5403F0FD007DC68B1B0F5803F67
:1048200012D0B0F5003F06D115E0B0F5802F03D0CF
:10483000B0F5A02F00D00125A5B12E462088C04399
:1048400010F4804F17D02DE0012104F1080003F08F
:1048500057FB0546F0E7012104F1280003F0F0FBC7
:104860000546E9E7D8F80000616E20F4E02008432F
:10487000C8F80000E2E7D4F8B000B0F1405F0FD014
:1048800007DC68B1B0F1805F12D0B0F1005F06D1F3
:1048900015E0B0F1804F03D0B0F1A04F00D001255A
:1048A000A5B12E462088C04310F4004F18D022E056
:1048B000012104F1080003F023FB0546F0E7012184
:1048C00004F1280003F0BCFB0546E9E7D9F8000035
:1048D000D4F8B01020F0E0400843C9F80000E1E748
:1048E000206F30B1B0F1805F0BD0B0F1005F0DD020
:1048F000012595B12E462068C04310F0807F15D069
:104900001FE0386840F400303860F2E7012104F11C
:10491000080003F0F5FA0546EBE7D8F80000216F30
:1049200020F040500843C8F80000E4E7A06C30B124
:10493000012819D002281CD0032800D00125FDB180
:104940002E462068DFF818B0C04310F4800F09E04D
:104950002C44025850440258584402584C440258BF
:104960001044025814D030E0386840F40030386009
:10497000E5E7022104F1080003F0C2FA0546DEE78C
:10498000F8480168A26C21F0030111430160D8E7E7
:10499000F548006840F48071F3480160FFF76EF954
:1049A0008246F148006810F4807F0CD1FFF766F969
:1049B000A0EB0A00642801D9032504E0EA48006856
:1049C00010F4807FF2D045B12E462078DFF89CA30A
:1049D000C04310F0010F60D070E0DFF894A3DAF864
:1049E0000000B4F8B41000F4407001F44071884243
:1049F00011D0DAF8000020F44070DAF8001041F429
:104A00008031CAF80010DAF8001021F48031CAF8B9
:104A10000010CAF80000D4F8B400B0F5807F16D1B9
:104A2000FFF72CF90090DAF8000010F0020F0ED119
:104A3000FFF724F90099411A41F28830814201D9E7
:104A4000032504E0DAF8000010F0020FF0D00DB1F9
:104A50002E46BAE7D4F8B4004FF4407181430FD02A
:104A6000DBF8000020F47C50CBF80000DAF80000FE
:104A7000B4F8B410C1F30B010843CAF80000A4E76E
:104A8000DBF8001020F4407020F0704021F47C51DD
:104A900041EA1010CBF80000E8E7E06F18280BD0CF
:104AA00005DC48B108280FD0102804D113E02028D5
:104AB00002D0282800D00125A5B12E462078C04379
:104AC00010F0020F17D02FE0012104F1080003F0CD
:104AD00017FA0546F0E7012104F1280003F0B0FAC7
:104AE0000546E9E7DAF80000E16F20F038000843F6
:104AF000CAF80000E2E7A06F062812D2DFE800F053
:104B000012030A121212012104F1080003F0F8F94D
:104B1000054607E0012104F1280003F091FA05465B
:104B200000E0012535B12E462078C04310F0040F77
:104B300009D022E0DAF80000A16F20F00700084356
:104B4000CAF80000F0E7D4F89400062812D2DFE893
:104B500000F012030A121212012104F1080003F0FE
:104B6000CFF9054607E0012104F1280003F068FAB7
:104B7000054600E0012535B12E462078C04310F0EF
:104B8000200F0AD020E0D9F80000D4F8941020F0CB
:104B900007000843C9F80000EFE7D4F89000B0F12F
:104BA000405F0FD007DC68B1B0F1805F12D0B0F188
:104BB000005F06D115E0B0F1804F03D0B0F1A04FF7
:104BC00000D00125A5B12E462078C04310F0400F3B
:104BD00018D02EE0002104F1080003F091F90546F9
:104BE000F0E7022104F1280003F02AFA0546E9E77C
:104BF000DAF80000D4F8901020F0E0400843CAF83A
:104C00000000E1E7D4F89C00B0F5406F0FD007DC5E
:104C100068B1B0F5806F12D0B0F5006F06D115E025
:104C2000B0F5805F03D0B0F5A05F00D00125A5B13D
:104C30002E462078C04310F0800F18D02EE00021BF
:104C400004F1080003F05CF90546F0E7022104F1E5
:104C5000280003F0F5F90546E9E7D9F80000D4F893
:104C60009C1020F4E0500843C9F80000E1E7D4F8B4
:104C7000A000B0F5C04F0FD007DC68B1B0F5005F01
:104C800012D0B0F5804F06D115E0B0F5004F03D03B
:104C9000B0F5204F00D00125A5B12E462078C043A5
:104CA00010F0080F18D02CE0002104F1080003F0E8
:104CB00027F90546F0E7022104F1280003F0C0F9C6
:104CC0000546E9E7D9F80000D4F8A01020F46040C8
:104CD0000843C9F80000E1E7D4F88400B0F5805F2C
:104CE00006D1022104F1280003F0AAF900B101263F
:104CF000DAF80000D4F8841020F440500843CAF8D1
:104D000000002078C04310F0100F14D1D4F89800A0
:104D1000B0F5807F06D1022104F1280003F090F95C
:104D200000B10126D9F80000D4F8981020F44070A2
:104D30000843C9F800002068C04310F4002F0BD1CD
:104D4000D4F8A400B0B1B0F5803F1AD0B0F5003F60
:104D500000D00125E5B12E462068C04310F4802F15
:104D600020D02DE04C4402580048025854440258C8
:104D700070440258002104F1080003F0C1F8054610
:104D8000E8E7022104F1280003F05AF90546E1E7BB
:104D9000D9F80000D4F8A41020F440300843C9F832
:104DA0000000D9E7D4F88800B0F5801F0ED0B0F528
:104DB000001F10D0B0F5401F00D0012595B12E4640
:104DC0002068C04310F4803F16D01DE0386840F4DE
:104DD00000303860F2E7012104F1280003F030F9D7
:104DE0000546EBE7DAF80000D4F8881020F440100C
:104DF0000843CAF80000E3E7206D58B1B0F5803FE2
:104E00000DD0012595B12E462068C04310F0005FFB
:104E100014D01AE0386840F400303860F2E702211C
:104E200004F1080003F06CF80546EBE76E480168F2
:104E3000226D21F4803111430160E5E7022104F184
:104E4000280003F0FDF800B101262068C04310F4EB
:104E5000003F0ED1D4F8800048B1B0F5807F0ED06D
:104E6000B0F5007F03D0B0F5407F00D001255DB1E3
:104E70002E462068C04310F4801F0FD016E038681B
:104E800040F400303860F2E7DAF80000D4F880101F
:104E900020F440700843CAF80000EAE7D8F80000A0
:104EA000616F20F000400843C8F800002068C0434C
:104EB00010F0805F08D1DBF80000D4F8B81020F4BF
:104EC00080400843CBF800002068C04310F4001F66
:104ED00007D1D8F80000E16E20F080700843C8F8D0
:104EE00000002068C04310F0804F0CD1DBF80000B8
:104EF00020F40040CBF80000DBF80000D4F8BC1030
:104F00000843CBF800002068C04310F0004F06D1E2
:104F100035480168626D21F04051114301602068FD
:104F2000C04310F4000F08D1DAF80000D4F88C1058
:104F300020F440000843CAF8000020790025C0434F
:104F400000F00100284306D1002104F1080002F01E
:104F5000D7FF00B106462079C04300F00200284385
:104F600006D1012104F1080002F0CAFF00B1064693
:104F70002079C04300F00400284306D1022104F147
:104F8000080002F0BDFF00B106462079C04300F0E2
:104F90000800284306D1002104F1280003F050F84E
:104FA00000B106462079C04300F01000284306D126
:104FB000012104F1280003F043F800B106462079EE
:104FC000C04300F02000284306D1022104F128004C
:104FD00003F036F800B1064616B10120BDE8F88F9F
:104FE0000020BDE8F88F00004C4402582DE9F05F26
:104FF00004460D46002C17D0DFF88492D9F8000043
:1050000000F00F00A84212D2D9F8000020F00F00E3
:105010002843C9F80000D9F8000000F00F00A842AA
:1050200005D00120BDE8F09F0120BDE8F09F207869
:10503000944E10F0040F0AD02069316801F070011D
:10504000884204D9316821F070010843306020782B
:105050008D4F10F0080F0AD06069396801F07001B7
:10506000884204D9396821F07001084338602078FB
:1050700010F0100F0AD0A069396801F4E06188428D
:1050800004D9396821F4E061084338602078DFF8FA
:10509000FCB110F0200F0DD0E069DBF8001001F03A
:1050A0007001884206D9DBF8001021F07001084336
:1050B000CBF80000207810F0020F0AD0E0683168C9
:1050C00001F00F01884204D9316821F00F01084333
:1050D0003060207810F0010F51D03068A16820F4C2
:1050E00070600843306060686949022808D003286E
:1050F0000DD0012812D0096811F0040F34D011E04E
:10510000096811F4003F0DD10120BDE8F09F096846
:1051100011F0007F06D10120BDE8F09F096811F46D
:10512000807F1ED0DFF86CA1DAF8001021F00701B3
:105130000843CAF80000FEF7A1FD8046DAF8000037
:10514000616800F03800B0EBC10F18D0FEF796FD93
:10515000A0EB080141F28830814208D90320BDE864
:10516000F09F0120BDE8F09F0120BDE8F09FDAF834
:105170000000616800F03800B0EBC10FE6D1207884
:1051800010F0020F0AD0E068316801F00F01884288
:1051900004D2316821F00F0108433060D9F80000D3
:1051A00000F00F00A8420FD9D9F8000020F00F003E
:1051B0002843C9F80000D9F8000000F00F00A84209
:1051C00002D00120BDE8F09F207810F0040F0AD033
:1051D0002069316801F07001884204D2316821F001
:1051E000700108433060207810F0080F0AD0606921
:1051F000396801F07001884204D2396821F07001E9
:1052000008433860207810F0100F0AD0A069396880
:1052100001F4E061884204D2396821F4E061084376
:105220003860207810F0200F0DD0E069DBF8001016
:1052300001F07001884206D2DBF8001021F0700105
:105240000843CBF8000000F07BF83168C1F303227B
:1052500011498A5C02F01F02D040326802F00F024E
:10526000895C0E4A01F01F0120FA01F111600C491E
:1052700008600C480068BDE8F05FFEF7C3BE0000A0
:1052800000200052184402581C440258204402587E
:105290000044025810440258D096000864010024CB
:1052A00060010024580100244DF804ED00F048F896
:1052B0000B4A11680B4BC1F30321595C01F01F012C
:1052C00020FA01F11068084A00F00F00185C00F0A5
:1052D0001F0021FA00F01060044A11605DF804FB21
:1052E00018440258D096000864010024600100248C
:1052F0004DF804EDFFF7D8FF05490968054AC1F3E9
:105300000211515C01F01F01C8405DF804FB000070
:105310001C440258D09600084DF804EDFFF7C4FF76
:1053200005490968054AC1F30221515C01F01F01DA
:10533000C8405DF804FB00001C440258D0960008E9
:105340004DF8044D69480068DFF8A4C1694B10F0BE
:1053500038014ED008294FEA2C1047D0102959D0D7
:10536000182943D16448016801F003010068C0F3C3
:105370000510624A126802F00102614C2468C4F30D
:10538000CC0414FB02F200EE102AB8EE400A00280A
:105390007BD0DFED5C0A5C4AB7EE001AA9B39FED43
:1053A0005B2A012974D0022971D001EE900A10689D
:1053B000F8EE611AC2EE212AC0F3080001EE900A4D
:1053C000F8EE611A40EE201A31EE810A22EE800AD0
:1053D0001068C0F34620401C00EE900AF8EE600A08
:1053E00080EE201ABCEEC10A10EE100A5DF8044BE4
:1053F0007047186810F0200F08D018685DF8044B4B
:10540000C0F3C1002CFA00F0704707E05DF8044BD0
:10541000604670473E485DF8044B7047196811F0CC
:10542000200F1CD01968C1F3C1012CFA01F101EE63
:10543000901AF8EE612A01EE900A1068F8EE611AEF
:1054400082EEA12AC0F3080001EE900AF8EE611A7C
:1054500040EE201A31EE810A22EE000AB8E701EE92
:10546000900ADFED2C2A1068F8EE611A82EEA12A6C
:10547000C0F3080001EE900AF8EE611A40EE201A1F
:1054800031EE810A22EE000AA2E72BE000E013E0F1
:1054900001EE900A1068F8EE611AC2EE212AC0F3FC
:1054A000080001EE900AF8EE611A40EE201A31EE83
:1054B000810A22EE800A8BE701EE900ADFED162AC0
:1054C0001068F8EE611A82EEA12AC0F3080001EE1E
:1054D000900AF8EE611A40EE201A31EE810A22EEAF
:1054E000000A75E75DF8044B00207047104402582D
:1054F0000090D00300440258284402582C4402581B
:105500003444025800000039304402580024744AE0
:1055100000127A000024744C0024F44A2DE9F05F54
:105520000446002C11D02078DFF8F883FE4F10F0ED
:10553000010FFE4D6BD0D8F8000000F0380039683C
:10554000102823D0182803D006E00120BDE8F09FE2
:1055500001F00300022819D06068B0F5803F1ED02A
:1055600010B3B0F5A02F28D0286820F48030286030
:10557000286820F480202860606878B3FEF77EFBFE
:105580000646286810F4003F20D040E0286810F458
:10559000003F3CD0606830BB0120BDE8F09F286828
:1055A00040F480302860E7E7286820F480302860E5
:1055B000286820F480202860DEE7286840F48020F6
:1055C0002860286840F480302860D5E7FEF756FB55
:1055D000801B642803D90320BDE8F09F04E02868FD
:1055E00010F4003FF2D012E0FEF748FB06462868B0
:1055F00010F4003F0BD0FEF741FB801B642802D95A
:105600000320BDE8F09F286810F4003FF3D1207814
:1056100041F2030AC64E10F0020F4BD0D8F800003A
:1056200000F038003968A0B1182802D111F0030F3A
:105630000FD0E068002878D0296821F019010843CC
:105640002860FEF71BFB8146286810F0040F41D04C
:105650004DE0286810F0040F01D0E06868B12868B8
:10566000E16820F0190008432860FEF707FB814637
:10567000286810F0040F03D00FE00120BDE8F09F70
:10568000FEF7FCFAA0EB0900022802D90320BDE8CE
:10569000F09F286810F0040FF2D0FEF7E9FA5045A9
:1056A00010D82069402806D0316821F47C3141EAC5
:1056B0000030306051E0306820F47C3040F400303D
:1056C00030604AE03068217C20F0FE4040EA016012
:1056D000306042E0FEF7D2FAA0EB0900022802D9BE
:1056E0000320BDE8F09F286810F0040FF2D0FEF709
:1056F000BFFA504511D82069402806D0316821F4FE
:105700007C3141EA0030306027E0306820F47C30A2
:1057100040F40030306020E007E03068217C20F069
:10572000FE4040EA0160306017E0286820F0010088
:105730002860FEF7A3FA8146286810F0040F0CD009
:10574000FEF79CFAA0EB0900022802D90320BDE86D
:10575000F09F286810F0040FF2D1207810F0100F9D
:1057600045D0D8F8000000F038003968DFF8C4B13F
:10577000082813D0182803D101F0030001280DD008
:10578000E069A8B3286840F080002860FEF776FA48
:105790008146286810F4807F2BD037E0286810F409
:1057A000807F05D0E069802802D00120BDE8F09F0D
:1057B000FEF75EFA504510D8206A202806D03168DE
:1057C00021F0F84141EA8060306056E0306820F016
:1057D000F84040F0804030604FE0DBF8000094F883
:1057E000201020F07C5040EA0160CBF8000044E03B
:1057F0002CE0FEF743FAA0EB0900022802D90320AF
:10580000BDE8F09F286810F4807FF2D0FEF730FAF0
:10581000504510D8206A202806D0316821F0F84180
:1058200041EA8060306028E0306820F0F84040F0C5
:105830008040306021E0DBF8000094F8201020F078
:105840007C5040EA0160CBF8000016E0286820F0A8
:1058500080002860FEF712FA0646286810F4807F60
:105860000BD0FEF70BFA801B022802D90320BDE8FB
:10587000F09F286810F4807FF3D1207810F0080F93
:105880003AD0DFF8B4906069D8B1D9F8000040F0A0
:105890000100C9F80000FEF7F1F90646D9F800004A
:1058A00010F0020F28D1FEF7E9F9801B022802D977
:1058B0000320BDE8F09FD9F8000010F0020FF2D0ED
:1058C0001AE0D9F8000020F00100C9F80000FEF746
:1058D000D5F90646D9F8000010F0020F0CD0FEF7FB
:1058E000CDF9801B022802D90320BDE8F09FD9F82A
:1058F000000010F0020FF2D1207810F0200F3DD000
:10590000A06920B3286840F480502860FEF7B6F9FB
:105910000646286810F4005F30D1FEF7AFF9801B0F
:1059200002280BE010440258284402580044025850
:10593000044402580C4402587444025802D903200B
:10594000BDE8F09F286810F4005FE6D016E02868F4
:1059500020F480502860FEF791F90646286810F47C
:10596000005F0BD0FEF78AF9801B022802D90320C2
:10597000BDE8F09F286810F4005FF3D1207810F0A4
:10598000040F6CD0B14E306840F480703060FEF788
:1059900075F98146306810F4807F0CD1FEF76EF9FE
:1059A000A0EB0900642802D90320BDE8F09F30680D
:1059B00010F4807FF2D0A068A54E012816D0D0B197
:1059C000052821D0306820F001003060306820F0D8
:1059D00004003060A06841F2883A60B3FEF74EF9E7
:1059E0008146306810F0020F17D038E0306840F080
:1059F00001003060EEE7306820F001003060306870
:105A000020F004003060E5E7306840F004003060CA
:105A1000306840F001003060DCE7FEF72FF9A0EBC2
:105A20000900504502D90320BDE8F09F306810F00E
:105A3000020FF2D013E0FEF721F98146306810F032
:105A4000020F0CD0FEF71AF9A0EB0900504502D95D
:105A50000320BDE8F09F306810F0020FF2D1616AB8
:105A6000A1B3D8F80000DFF8EC9100F03800182856
:105A700009F10408A9F104067DD0022912D0286892
:105A800020F080702860FEF7F9F80446286810F0CE
:105A9000007F1BD0FEF7F2F8001B02286CD9032010
:105AA000BDE8F09F286820F080702860FEF7E6F8D7
:105AB0008246286810F0007F0DD0FEF7DFF8A0EBDB
:105AC0000A00022803D90320BDE8F09FBBE0286844
:105AD00010F0007FF1D13868E16A20F0F30020F483
